:10000000FDC000001FC100001DC100001BC1000099
:1000100019C1000017C1000015C1000013C1000084
:1000200011C100000FC100000DC100000BC1000094
:1000300009C1000007C1000005C1000003C10000A4
:1000400001C10000FFC00000FDC00000FBC00000B7
:10005000F9C00000F7C00000F5C00000F3C00000C8
:10006000F1C00000EFC00000EDC00000EBC00000D8
:10007000E9C00000E7C00000E5C00000E3C00000E8
:10008000E1C00000DFC00000DDC00000DBC00000F8
:10009000D9C00000D7C00000D5C00000D3C0000008
:1000A000D1C00000CFC00000CDC00000CBC0000018
:1000B000C9C00000C7C00000C5C00000C3C0000028
:1000C000C1C00000BFC00000BDC00000BBC0000038
:1000D000B9C00000B7C00000B5C00000B3C0000048
:1000E000B1C00000AFC00000ADC00000ABC0000058
:1000F000A9C00000A7C00000A5C00000A3C0000068
:10010000A1C000009FC000009DC000009BC0000077
:1001100099C0000097C0000095C0000093C0000087
:1001200091C000008FC000008DC000008BC0000097
:1001300089C0000087C0000085C0000083C00000A7
:1001400081C000007FC000007DC000007BC00000B7
:1001500079C0000077C0000075C0000073C00000C7
:1001600071C000006FC000006DC000006BC00000D7
:1001700069C0000067C0000065C0000063C00000E7
:1001800061C000005FC000005DC000005BC00000F7
:1001900059C0000057C0000055C0000053C0000007
:1001A00051C000004FC000004DC000004BC0000017
:1001B00049C0000047C0000045C0000043C0000027
:1001C00041C000003FC000003DC000003BC0000037
:1001D00039C0000037C0000035C0000033C0000047
:1001E00031C000002FC000002DC000002BC0000057
:1001F00029C0000027C0000025C0000011241FBE38
:10020000CFEFDFE3DEBFCDBF00E00CBF18BE19BEED
:100210001ABE1BBE10E2A0E0B0E2E6E5F5E000E0A9
:100220000BBF02C007900D92AC30B107D9F71BBECF
:1002300020E2ACE0B0E201C01D92AD30B207E1F7C0
:1002400014D187C1DDCE1F93CF93DF93662329F0AE
:1002500090E1E0E6F6E0958304C090E1E0E6F6E0A8
:100260009683A0E0B6E014969C911497682F60786E
:100270009F70962B682F6074962B682F6072962B58
:10028000682F6071962B14969C931497E0E6F6E025
:1002900090E295830000968314961C911497682F22
:1002A00066956695669520E8629FB0011124282F17
:1002B0002170C22F20E0D22FC295D295D07FDC27AB
:1002C000C07FDC27C62B712F7F70C72B82FB442792
:1002D00040F950E000245695479507945695479568
:1002E0000794542F402D4C2B81FB222720F930E01E
:1002F000220F331F22953295307F3227207F3227FD
:10030000242B14962C9395830000968381E28A9582
:10031000F1F70000DF91CF911F91089560E093CF36
:10032000611102C090E001C090E4890F60E0806834
:100330008ACF81E0F3DF10920C208FE193E00197E8
:10034000F1F700C0000008958A3031F08C3089F454
:10035000F0DF10920C20089580910C208F5F809325
:100360000C20823011F410920C2060910C2080E05F
:10037000D7CF61E068CFCF93DF93EC0189918823D9
:1003800021F0E2DF89918111FCCFDF91CF910895B7
:10039000CF93DF93A0E0B6E080EF11968C93119796
:1003A000E0E6F6E080E3818387EA91E60197F1F7E2
:1003B00000C0000080E1868314968C9114978F70A2
:1003C000806314968C93149780E285830000868363
:1003D000C3ECD9E02197F1F700C0000014969C917E
:1003E00014979F70906314969C93149785830000D4
:1003F0008683D2E4DA95F1F700C014969C911497A5
:100400009F70906314969C93149785830000868355
:1004100091E29A95F1F7000014969C9114979F70C1
:10042000906214969C93858300008683C1E2CA95EE
:10043000F1F7000060E088E206DF60E08CE003DFB7
:1004400060E086E000DF75DFDF91CF9108951F93B4
:10045000CF93DF93C0E4D6E010E11E8380E037D075
:100460001D83DF91CF911F910895CF93DF9300D02B
:10047000CDB7DEB78DDF22D081E0E0E8F6E0818302
:10048000E6DF182F80E090E276DF61E080E048DF71
:100490004AE050E0BE016F5F7F4F812F90E021D096
:1004A000CE01019668DF2FEF84E39CE0215080406D
:1004B0009040E1F700C000003CDFE2CFE0E4F6E06E
:1004C0008081806B808380E58093C0080895E0EC94
:1004D000F8E0838382818823ECF7E0ECF8E0838105
:1004E0000895FB019F0142306CF045325CF4642FAB
:1004F00077271BD0805D8A330CF0895D8193CB0117
:100500000097A9F71082C90100C0DC01FC01672F28
:1005100071917723E1F7329704C07C916D937083DA
:100520006291AE17BF07C8F30895AA1BBB1B51E128
:1005300007C0AA1FBB1FA617B70710F0A61BB70B53
:10054000881F991F5A95A9F780959095BC01CD01F8
:060550000895F894FFCFAE
:0C0556005246494420646174613A000080
:00000001FF
